:020000040800F2
:100000004053002079A00008D75E01084DA00008E9
:100010004DA000084DA000084DA000080000000001
:1000200000000000000000000000000061980008CF
:100030004DA0000800000000F5970008C9C700089F
:100040001D9900081D9900081D9900081D990008B8
:100050001D9900081D9900081D9900081D990008A8
:100060001D9900081D9900081D9900081D99000898
:100070001D9900081D9900081D9900081D99000888
:100080001D9900081D9900081D9900081D99000878
:100090001D9900081D9900081D9900081D99000868
:1000A0001D9900081D9900081D9900081D99000858
:1000B0001D9900081D9900081D9900081D99000848
:1000C0001D9900081D9900081D9900081D99000838
:1000D0001D9900081D9900081D9900081D99000828
:1000E0001D9900081D9900081D9900081D99000818
:1000F0001D9900081D9900081D9900081D99000808
:100100001D9900081D9900081D9900081D990008F7
:100110001D9900081D9900081D9900081D990008E7
:100120001D9900081D9900081D9900081D990008D7
:100130001D9900081D9900081D9900081D990008C7
:100140001D9900081D9900081D9900081D990008B7
:100150001D9900081D9900081D9900081D990008A7
:100160001D9900081D9900081D9900081D99000897
:100170001D9900081D9900081D9900081D99000887
:080180001D9900081D990008FB
:10018800FFFFFFFFFFFFFFFFFFFFFFFFFFFFFFFF77
:10019800FFFFFFFFFFFFFFFFFFFFFFFFFFFFFFFF67
:1001A800FFFFFFFFFFFFFFFFFFFFFFFFFFFFFFFF57
:0801B800FFFFFFFFFFFFFFFF47
:1001C00090F800F06DE9024520F007016FF0000C97
:1001D00010F0070491F820F040F049804FF000043F
:1001E0006FF00700D1E9002391F840F000F108001A
:1001F00082FA4CF2A4FA8CF283FA4CF3A2FA8CF352
:100200004BBBD1E9022382FA4CF200F10800A4FAB8
:100210008CF283FA4CF3A2FA8CF3E3B9D1E904230C
:1002200082FA4CF200F10800A4FA8CF283FA4CF343
:10023000A2FA8CF37BB9D1E9062301F1200182FAFD
:100240004CF200F10800A4FA8CF283FA4CF3A2FA03
:100250008CF3002BC6D0002A04BF04301A4612BA11
:10026000B2FA82F2FDE8024500EBD2007047D1E914
:10027000002304F00305C4F100004FEAC50514F0A3
:10028000040F91F840F00CFA05F562EA05021CBF74
:1002900063EA050362464FF00004A9E7000000008E
:1002A000A2EB0300704700BF02780B78012A28BF39
:1002B0009A42F5D16DE9044540EA0104CDE90267AF
:1002C0006FF0000C4FEA447212B380EA010414F09C
:1002D000070F6AD100F0070420F0070004F00305BF
:1002E00021F007014FEAC505F0E8042314F0040FDC
:1002F000F1E804670CFA05F462EA040266EA04060F
:100300000AD063EA0403624667EA0407664603E02C
:10031000F0E80423F1E8046782FA4CF582EA060467
:10032000A4FA8CF46CBB83FA4CF583EA0705A5FAB2
:100330008CF595B950E9022351E9026782FA4CF530
:1003400082EA0604A4FA8CF483FA4CF583EA0705E2
:10035000A5FA8CF52543DBD09CB92DBAB5FA85F406
:1003600024F0070427FA04F1DDE9026723FA04F315
:1003700003F0FF0001F0FF01FDE80445A0EB0100E0
:10038000704724BAB4FA84F424F0070426FA04F17E
:10039000DDE9026722FA04F202F0FF0001F0FF013A
:1003A000FDE80445A0EB0100704714F0030F3CD1B9
:1003B00010F0030428D150F8082B51F8083B82FABA
:1003C0004CF582EA0305A5FA8CF55DB950F8042CCA
:1003D00051F8043C82FA4CF582EA0305A5FA8CF543
:1003E000002DE8D02DBAB5FA85F424F0070423FADD
:1003F00004F122FA04F202F0FF0001F0FF01FDE82F
:100400000445A0EB010070474FEAC40420F003004C
:1004100050F8082B21F0030151F8083B0CFA04F4C2
:1004200062EA040263EA0403C9E710F003041AD085
:10043000A1EB040120F00300E40750F8042B06D0E0
:100440000FD28B785FFAA2F4E41A06D12BB1CB78E5
:100450005FFAB2F4E41A00D11BB920465DF8104BE4
:10046000704701F1040150F8042BCC0721F003017F
:1004700051F8043B48D824D222F07F4482FA4CF54C
:1004800094EA1325A5FA8CF50AD165B951F8043B15
:1004900084EA0204B4EB036F0ED150F8042BEBE7AF
:1004A0004FEA132355E035F07F454DD10878FDE83C
:1004B0000445C0F1000070474FEA126203F0FF03E9
:1004C00047E002EA1C4482FA4CF594EA1345A5FA87
:1004D0008CF50AD165B951F8043B84EA0204B4EB07
:1004E000034F0CD150F8042BEBE74FEA134330E0F5
:1004F00015EA1C4528D10B884FEA124229E04FEA41
:10050000124203EA1C4324E002F0FF0482FA4CF595
:1005100094EA1365A5FA8CF50AD165B951F8043B44
:1005200084EA0204B4EB032F09D150F8042BEBE763
:100530004FEA13630DE015F0FF0F05D10B684FEA8A
:10054000122223F07F4304E04FF00000FDE8044551
:10055000704712BA1BBA82FA4CF482EA0304A4FA76
:100560008CF5B5FA85F402FA04F203FA04F34FEAC3
:100570001260FDE80445A0EB136070470000000026
:1005800001F0FF01102A2BDB10F0070F08D010F844
:10059000013B013A8B422DD010F0070F42B3F6D148
:1005A000F0B441EA012141EA014122F007047FF061
:1005B00000070023F0E80256083C85EA010586EAB8
:1005C000010685FA47F5A3FA87F586FA47F6A5FAF4
:1005D00087F68EB9EED1F0BC01F0FF0102F0070200
:1005E00032B110F8013B013A83EA010313B1F8D1AB
:1005F0000020704701387047002D06BF354603388C
:10060000073815F0010F07D1013015F4807F02BFC4
:10061000013015F4C03F0130F0BC0138704700BF15
:1006200081F0004102E000BF83F0004330B54FEAA3
:1006300041044FEA430594EA050F08BF90EA020F10
:100640001FBF54EA000C55EA020C7FEA645C7FEAA3
:10065000655C00F0E2804FEA5454D4EB5555B8BFC6
:100660006D420CDD2C4480EA020281EA030382EA37
:10067000000083EA010180EA020281EA0303362DC9
:1006800088BF30BD11F0004F4FEA01314FF4801C9C
:100690004CEA113102D0404261EB410113F0004FAE
:1006A0004FEA03334CEA133302D0524263EB430365
:1006B00094EA050F00F0A780A4F10104D5F1200E03
:1006C0000DDB02FA0EFC22FA05F2801841F100015E
:1006D00003FA0EF2801843FA05F359410EE0A5F132
:1006E00020050EF1200E012A03FA0EFC28BF4CF063
:1006F000020C43FA05F3C01851EBE37101F0004519
:1007000007D54FF0000EDCF1000C7EEB00006EEB25
:100710000101B1F5801F1BD3B1F5001F0CD34908AF
:100720005FEA30004FEA3C0C04F101044FEA445206
:1007300012F5800F80F09A80BCF1004F08BF5FEA8D
:10074000500C50F1000041EB045141EA050130BD6D
:100750005FEA4C0C404141EB0101013C28BFB1F57F
:10076000801FE9D291F0000F04BF01460020B1FACA
:1007700081F308BF2033A3F10B03B3F120020CDA9D
:100780000C3208DD02F1140CC2F10C0201FA0CF07B
:1007900021FA02F10CE002F11402D8BFC2F1200CE0
:1007A00001FA02F120FA0CFCDCBF41EA0C01904096
:1007B000E41AA2BF01EB0451294330BD6FEA0404DF
:1007C0001F3C1CDA0C340EDC04F11404C4F12002CA
:1007D00020FA04F001FA02F340EA030021FA04F3DC
:1007E00045EA030130BDC4F10C04C4F1200220FA33
:1007F00002F001FA04F340EA0300294630BD21FA71
:1008000004F0294630BD94F0000F83F4801306BF36
:1008100081F480110134013D4EE77FEA645C18BF2A
:100820007FEA655C29D094EA050F08BF90EA020FC1
:1008300005D054EA000C04BF1946104630BD91EAB9
:10084000030F1EBF0021002030BD5FEA545C05D1BC
:100850004000494128BF41F0004130BD14F58004FB
:100860003CBF01F5801130BD01F0004545F0FE416F
:1008700041F470014FF0000030BD7FEA645C1ABFA4
:10088000194610467FEA655C1CBF0B46024650EADB
:10089000013406BF52EA033591EA030F41F4002107
:1008A00030BD00BF90F0000F04BF0021704730B58D
:1008B0004FF4806404F132044FF000054FF0000162
:1008C00050E700BF90F0000F04BF0021704730B523
:1008D0004FF4806404F1320410F0004548BF4042F8
:1008E0004FF000013EE700BF42004FEAE2014FEA4D
:1008F00031014FEA02701FBF12F07F4393F07F4F28
:1009000081F06051704732F07F4208BF704793F02A
:100910007F4F04BF41F40021704730B54FF460743D
:1009200001F0004521F000411CE700BF50EA010240
:1009300008BF704730B54FF000050AE050EA0102E9
:1009400008BF704730B511F0004502D5404261EB59
:1009500041014FF4806404F132045FEA915C3FF49A
:10096000D8AE4FF003025FEADC0C18BF03325FEA37
:10097000DC0C18BF033202EBDC02C2F1200300FAE8
:1009800003FC20FA02F001FA03FE40EA0E0021FA0D
:1009900002F11444BDE600BF70B54FF0FF0C4CF4FB
:1009A000E06C1CEA11541DBF1CEA135594EA0C0FAD
:1009B00095EA0C0F00F0DEF82C4481EA030621EAE8
:1009C0004C5123EA4C5350EA013518BF52EA033523
:1009D00041F4801143F4801338D0A0FB02CE4FF0D5
:1009E0000005E1FB02E506F00042E0FB03E54FF005
:1009F0000006E1FB03569CF0000F18BF4EF0010EFD
:100A0000A4F1FF04B6F5007F64F5407404D25FEAF8
:100A10004E0E6D4146EB060642EAC62141EA5551AB
:100A20004FEAC52040EA5E504FEACE2EB4F1FD0CED
:100A300088BFBCF5E06F1ED8BEF1004F08BF5FEA6B
:100A4000500E50F1000041EB045170BD06F000461D
:100A500046EA010140EA020081EA0301B4EB5C04CA
:100A6000C2BFD4EB0C0541EA045170BD41F48011C2
:100A70004FF0000E013C00F3AB8014F1360FDEBFE7
:100A8000002001F0004170BDC4F10004203C35DAC3
:100A90000C341BDC04F11404C4F1200500FA05F346
:100AA00020FA04F001FA05F240EA020001F00042E7
:100AB00021F0004110EBD37021FA04F642EB06015D
:100AC0005EEA430E08BF20EAD37070BDC4F10C0487
:100AD000C4F1200500FA04F320FA05F001FA04F24B
:100AE00040EA020001F0004110EBD37041F1000137
:100AF0005EEA430E08BF20EAD37070BDC4F1200542
:100B000000FA05F24EEA020E20FA04F301FA05F2A9
:100B100043EA020321FA04F001F0004121FA04F251
:100B200020EA020000EBD3705EEA430E08BF20EA21
:100B3000D37070BD94F0000F0FD101F0004640005B
:100B400041EB010111F4801F08BF013CF7D041EADD
:100B5000060195F0000F18BF704703F000465200E1
:100B600043EB030313F4801F08BF013DF7D043EAB2
:100B70000603704794EA0C0F0CEA135518BF95EA68
:100B80000C0F0CD050EA410618BF52EA4306D1D1EF
:100B900081EA030101F000414FF0000070BD50EA0E
:100BA000410606BF1046194652EA430619D094EA98
:100BB0000C0F02D150EA013613D195EA0C0F05D182
:100BC00052EA03361CBF104619460AD181EA0301D6
:100BD00001F0004141F0FE4141F470014FF000008E
:100BE00070BD41F0FE4141F4780170BD70B54FF029
:100BF000FF0C4CF4E06C1CEA11541DBF1CEA1355A9
:100C000094EA0C0F95EA0C0F00F0A7F8A4EB05048A
:100C100081EA030E52EA03354FEA013100F0888081
:100C20004FEA03334FF0805545EA131343EA12634A
:100C30004FEA022245EA111545EA10654FEA0026FF
:100C40000EF000419D4208BF964244F1FD0404F5B8
:100C5000407402D25B084FEA3202B61A65EB030514
:100C60005B084FEA32024FF480104FF4002CB6EBD1
:100C7000020E75EB030E22BFB61A754640EA0C0051
:100C80005B084FEA3202B6EB020E75EB030E22BF91
:100C9000B61A754640EA5C005B084FEA3202B6EBD2
:100CA000020E75EB030E22BFB61A754640EA9C0091
:100CB0005B084FEA3202B6EB020E75EB030E22BF61
:100CC000B61A754640EADC0055EA060E18D04FEA1F
:100CD000051545EA16754FEA06164FEAC30343EABF
:100CE00052734FEAC2025FEA1C1CC0D111F4801F8C
:100CF0000BD141EA00014FF000004FF0004CB6E785
:100D000011F4801F04BF01430020B4F1FD0C88BF23
:100D1000BCF5E06F3FF6AFAEB5EB030C04BFB6EB2E
:100D2000020C5FEA500C50F1000041EB045170BD21
:100D30000EF0004E4EEA113114EB5C04C2BFD4EB4E
:100D40000C0541EA045170BD41F480114FF0000ED2
:100D5000013C90E645EA060E8DE60CEA135594EA4E
:100D60000C0F08BF95EA0C0F3FF43BAF94EA0C0F51
:100D70000AD150EA01347FF434AF95EA0C0F7FF4C6
:100D800025AF104619462CE795EA0C0F06D152EA1A
:100D900003353FF4FDAE1046194622E750EA4106FE
:100DA00018BF52EA43067FF4C5AE50EA41047FF40F
:100DB0000DAF52EA43057FF4EBAE12E780F000403E
:100DC00002E000BF81F0004142001FBF5FEA410323
:100DD00092EA030F7FEA226C7FEA236C6AD04FEA23
:100DE0001262D2EB1363C1BFD21841404840414068
:100DF000B8BF5B42192B88BF704710F0004F40F41A
:100E0000000020F07F4018BF404211F0004F41F435
:100E1000000121F07F4118BF494292EA030F3FD001
:100E2000A2F1010241FA03FC10EB0C00C3F1200314
:100E300001FA03F100F0004302D5494260EB4000A3
:100E4000B0F5000F13D3B0F1807F06D340084FEA0E
:100E5000310102F10102FE2A51D2B1F1004F40EB03
:100E6000C25008BF20F0010040EA0300704749006B
:100E700040EB0000013A28BFB0F5000FEDD2B0FA08
:100E800080FCACF1080CB2EB0C0200FA0CF0AABF2B
:100E900000EBC25052421843BCBFD04018437047C9
:100EA00092F0000F81F4000106BF80F400000132CF
:100EB000013BB5E74FEA41037FEA226C18BF7FEAA6
:100EC000236C21D092EA030F04D092F0000F08BFE8
:100ED0000846704790EA010F1CBF0020704712F0CF
:100EE0007F4F04D1400028BF40F00040704712F10E
:100EF00000723CBF00F50000704700F0004343F073
:100F0000FE4040F4000070477FEA226216BF0846A8
:100F10007FEA23630146420206BF5FEA412390EA6B
:100F2000010F40F4800070474FF0000304E000BF61
:100F300010F0004348BF40425FEA000C08BF704712
:100F400043F0964301464FF000001CE050EA0102D6
:100F500008BF70474FF000030AE000BF50EA0102EB
:100F600008BF704711F0004302D5404261EB4101D8
:100F70005FEA010C02BF84460146002043F0B643FD
:100F800008BFA3F18053A3F50003BCFA8CF2083A22
:100F9000A3EBC25310DB01FA02FC634400FA02FC2B
:100FA000C2F12002BCF1004F20FA02F243EB020032
:100FB00008BF20F00100704702F1200201FA02FC94
:100FC000C2F1200250EA4C0021FA02F243EB020087
:100FD00008BF20EADC7070474FF0FF0C1CEAD052CB
:100FE0001EBF1CEAD15392EA0C0F93EA0C0F6FD08C
:100FF0001A4480EA010C400218BF5FEA41211ED06A
:101000004FF0006343EA501043EA5111A0FB013155
:101010000CF00040B1F5000F3EBF490041EAD3712A
:101020005B0040EA010062F17F02FD2A1DD8B3F1A6
:10103000004F40EBC25008BF20F00100704790F015
:10104000000F0CF0004C08BF49024CEA502040EA67
:1010500051207F3AC2BFD2F1FF0340EAC25070472D
:1010600040F400004FF00003013A5DDC12F1190F6B
:10107000DCBF00F000407047C2F10002410021FADD
:1010800002F1C2F1200200FA02FC5FEA310040F1F5
:10109000000053EA4C0308BF20EADC70704792F06E
:1010A000000F00F0004C02BF400010F4000F013AA6
:1010B000F9D040EA0C0093F0000F01F0004C02BFA1
:1010C000490011F4000F013BF9D041EA0C018FE710
:1010D0000CEAD15392EA0C0F18BF93EA0C0F0AD016
:1010E00030F0004C18BF31F0004CD8D180EA01003C
:1010F00000F00040704790F0000F17BF90F0004FD5
:10110000084691F0000F91F0004F14D092EA0C0FB6
:1011100001D142020FD193EA0C0F03D14B0218BF49
:10112000084608D180EA010000F0004040F0FE408F
:1011300040F40000704740F0FE4040F4400070472B
:101140004FF0FF0C1CEAD0521EBF1CEAD15392EAAA
:101150000C0F93EA0C0F69D0A2EB030280EA010C9A
:1011600049024FEA402037D04FF0805343EA111133
:1011700043EA10130CF000408B4238BF5B0042F191
:101180007D024FF4000C8B4224BF5B1A40EA0C0036
:10119000B3EB510F24BFA3EB510340EA5C00B3EB68
:1011A000910F24BFA3EB910340EA9C00B3EBD10F56
:1011B00024BFA3EBD10340EADC001B0118BF5FEAA8
:1011C0001C1CE0D1FD2A3FF650AF8B4240EBC250D1
:1011D00008BF20F0010070470CF0004C4CEA502092
:1011E0007F32C2BFD2F1FF0340EAC250704740F4E1
:1011F00000004FF00003013A37E792F0000F00F0D3
:10120000004C02BF400010F4000F013AF9D040EA50
:101210000C0093F0000F01F0004C02BF490011F4E4
:10122000000F013BF9D041EA0C0195E70CEAD153DC
:1012300092EA0C0F08D142027FF47DAF93EA0C0FC3
:101240007FF470AF084676E793EA0C0F04D14B02A7
:101250003FF44CAF08466EE730F0004C18BF31F059
:10126000004CCAD130F000427FF45CAF31F0004353
:101270007FF43CAF5FE700BF4FEA4002B2F1FE4FA0
:101280000FD34FF09E03B3EB12620DD94FEA002348
:1012900043F0004310F0004F23FA02F018BF404221
:1012A00070474FF00000704712F1610F01D1420208
:1012B00005D110F0004008BF6FF0004070474FF0BC
:1012C000000070477BB972B90029BEBF00204FF003
:1012D000004106E008BF00281CBF6FF000414FF03E
:1012E000FF3000F057B8ADF1080C6DE904CE0029CD
:1012F00009DB002B1ADB00F0C2F9DDF804E0DDE9C0
:10130000022304B07047404261EB4101002B1BDB1C
:1013100000F0B5F9DDF804E0DDE9022304B0404255
:1013200061EB4101524263EB43037047524263EB6E
:10133000430300F0A4F9DDF804E0DDE9022304B082
:10134000404261EB41017047524263EB430300F0BE
:1013500096F9DDF804E0DDE9022304B0524263EBC4
:101360004303704753B94AB9002908BF00281CBF7E
:101370004FF0FF314FF0FF3000F00CB8ADF1080C2A
:101380006DE904CE00F07BF9DDF804E0DDE902232D
:1013900004B07047704700BF4FF0FF3C06E000BF4D
:1013A0004FF0010C02E000BF4FF0010C4DF804CDEE
:1013B0004FEA410C7FEA6C5C4FEA430C18BF7FEAAE
:1013C0006C5C1BD001B050EA410C0CBF52EA430CDC
:1013D00091EA030F02BF90EA020F0020704710F15C
:1013E000000F91EA030F58BF994208BF90422CBFEB
:1013F000D8176FEAE37040F0010070474FEA410CE4
:101400007FEA6C5C02D150EA013C07D14FEA430C01
:101410007FEA6C5CD6D152EA033CD3D05DF8040B72
:10142000704700BF8446104662468C4619466346A4
:1014300000E000BF01B5FFF7B7FF002848BF10F17B
:10144000000F01BD4DF808EDFFF7F4FF0CBF0120C0
:1014500000205DF808FB00BF4DF808EDFFF7EAFF3C
:1014600034BF012000205DF808FB00BF4DF808EDF7
:10147000FFF7E0FF94BF012000205DF808FB00BFEC
:101480004DF808EDFFF7CEFF94BF012000205DF876
:1014900008FB00BF4DF808EDFFF7C4FF34BF012083
:1014A00000205DF808FB00BF844641EA000313F00A
:1014B00003036DD1403A41D351F8043B40F8043B5B
:1014C00051F8043B40F8043B51F8043B40F8043B1E
:1014D00051F8043B40F8043B51F8043B40F8043B0E
:1014E00051F8043B40F8043B51F8043B40F8043BFE
:1014F00051F8043B40F8043B51F8043B40F8043BEE
:1015000051F8043B40F8043B51F8043B40F8043BDD
:1015100051F8043B40F8043B51F8043B40F8043BCD
:1015200051F8043B40F8043B51F8043B40F8043BBD
:1015300051F8043B40F8043B403ABDD2303211D35D
:1015400051F8043B40F8043B51F8043B40F8043B9D
:1015500051F8043B40F8043B51F8043B40F8043B8D
:10156000103AEDD20C3205D351F8043B40F8043B5D
:10157000043AF9D2043208D0D2071CBF11F8013B5B
:1015800000F8013B01D30B8803806046704700BF21
:10159000082A13D38B078DD010F003038AD0C3F130
:1015A0000403D21ADB071CBF11F8013B00F8013B12
:1015B00080D331F8023B20F8023B7BE7043AD9D3D1
:1015C000013A11F8013B00F8013BF9D20B780370A6
:1015D0004B7843708B788370604670474FEA410CBC
:1015E0007FEA6C5C02D150EA013C0AD14FEA430C1D
:1015F0007FEA6C5C02D152EA033C02D14FF000005A
:1016000070474FF0010070474FEA410212F5001297
:1016100015D211D56FF47873B3EB625212D94FEA39
:10162000C12343F0004343EA505311F0004F23FA23
:1016300002F018BF404270474FF00000704750EA78
:10164000013005D111F0004008BF6FF00040704735
:101650004FF00000704700BF430803F05533C01A35
:1016600000F03333800800F03330184400EB1010E2
:101670004FF0013300F00F305843000E70472DE952
:10168000F04786468C460846089E1546744619461D
:10169000002B40F0C2808542B2FA82F245D94AB1AD
:1016A000C2F1200300FA02FC2EFA03F3954043EA4C
:1016B0000C0C94404FEA154EA8B2BCFBFEF8230C6C
:1016C0000EFB18CC08FB00F943EA0C43994528D9D6
:1016D000EB1808F1FF3704D2994502D9A8F10207A7
:1016E0002B44A3EB0903A4B2B3FBFEFC0EFB1C339B
:1016F0000CFB00F044EA0344A04214D92C190CF16D
:10170000FF3304D2A04202D9ACF102032C44241AC4
:1017100043EA07401EB1D440002334607360BDE843
:10172000F0874746DDE76346F1E792BB431B0121A3
:101730004FEA154EAFB2B3FBFEFC200C0EFB1C3380
:101740000CFB07F840EA0343984562D9EB180CF10B
:10175000FF3004D2984502D9ACF102002B44A3EB30
:101760000803A4B2B3FBFEFC0EFB1C330CFB07F713
:1017700044EA0344A7424ED92C190CF1FF3304D29A
:10178000A74202D9ACF102032C44E41B43EA004017
:10179000C0E7C2F1200320FA03F1954090402EFAF1
:1017A00003F303434FEA154EAFB2B1FBFEFC0EFB51
:1017B0001C10190C0CFB07F841EA0041884504FA9B
:1017C00002F422D969180CF1FF3004D2884502D9FD
:1017D000ACF102002944A1EB08019BB2B1FBFEFC75
:1017E0000EFB1C110CFB07F743EA01439F420ED985
:1017F000EB180CF1FF3104D29F4202D9ACF1020187
:101800002B44DB1B41EA004192E76046E3E7614677
:10181000F7E76046A3E76346B7E7834206D916B900
:10182000002108467BE7C6E900E0F9E7B3FA83F751
:101830008FB9834201D3724508D8BEEB020460EB36
:10184000030301209C461EB9002168E73846FAE7E9
:10185000C6E9004CF8E7C7F1200CBB4022FA0CF4B3
:101860001C432EFA0CF120FA0CF3B84001434FEA66
:1018700014490EFA07F5B3FBF9F81FFA84FE09FBC9
:1018800018300B0C08FB0EFA43EA00439A4502FAA3
:1018900007F240D9E31808F1FF3004D29A4502D983
:1018A000A8F102002344A3EB0A0389B2B3FBF9F8C1
:1018B00009FB183308FB0EFE41EA03418E452CD983
:1018C000611808F1FF3304D28E4502D9A8F1020352
:1018D000214443EA0040A0FB0298A1EB0E014145E0
:1018E000CE46434602D306D14D4504D2B9EB020E93
:1018F00068EB04030138002EA6D0B5EB0E0261EBB5
:10190000030101FA0CFC22FA07F34CEA0303F94045
:10191000C6E9003198E74046C5E74346D9E70000ED
:10192000012870B50D4606D014F011FB1623036094
:101930004FF0FF3070BD16F0B6F9174A2B686E688D
:10194000A3FB023402FB0644AA68144D9B1844EB27
:10195000E274A0FB0502181A05FB012164EB0101EA
:101960000BA3D3E90023FFF7ADFC4FF01003EFF317
:10197000118483F31288BFF36F8F094BC3E9000111
:101980009A6084F31188BFF36F8F0020D2E700BF05
:1019900000CA9A3B0000000000CA9A3BA0860100E2
:1019A00028140020000000002DE9F04F016C9FB0CA
:1019B00016461F46CDE904672B9D039049B1426C42
:1019C0004A600123934004468B6010F0F3FB002330
:1019D0002364B7F10009B4BF012300232B60764BC9
:1019E000BCBF29F00049CDF8149033EA090300F098
:1019F000AA80DDE904340022184621460023CDE9FF
:101A00000801FFF71FFD804668B12A9A0123136081
:101A10002C9B13B12C9A694B1360694B0A930A985B
:101A20001FB0BDE8F08F1CAB01931DAB0093039872
:101A3000DDE9082310F0F2FE5FEA1955824640F016
:101A40009880DDE91C85454405F23243202B40F3A4
:101A50008383C3F1400309FA03F905F2124326FA1E
:101A600003F349EA0300FEF71DFF0123013DA1F145
:101A7000F8711193534B0022FEF7D6FD48A3D3E92A
:101A80000023FEF789FF48A3D3E90023FEF7CEFD2C
:101A9000064628460F46FEF715FF45A3D3E9002367
:101AA000FEF77AFF02460B4630463946FEF7BEFD8A
:101AB00006460F46FFF7A8FD002283460023304666
:101AC0003946FFF7C9FC002840F01A83A8EB050847
:101AD000BBF1160F08F1FF3400F28B813A4D05EB94
:101AE000CB05D5E90023DDE90801FFF7B5FC0028A7
:101AF00070D00023002C0BF1FF3B1093C0F27E81CD
:101B000000230B93BBF1000F6ADA0B9BA3EB0B03D3
:101B10000B93CBF10003CDE90EB3289B092B4FF0BB
:101B2000000B65D8052B40F31C83043B289300254C
:101B3000289B023B032B00F22386DFE813F06004AE
:101B40005D04540438042A9AC9F3130942F20F734E
:101B500059EA060913601CD12C9B002B00F02B8640
:101B60001A4B0A9308332C9A0A9813601FB0BDE8E9
:101B7000F08FDDE90812C2F31303084643F07F51EA
:101B8000CDF84480A5F2FF35DDF8708041F44011B6
:101B900070E72C9B002B40F0E7830D4B0A933EE748
:101BA00061436F63A787D23FB3C8608B288AC63F63
:101BB000FB799F501344D33F0000F07F1197010839
:101BC000109701080000F83F0086010834970108CB
:101BD00040970108B8F1000F40F3608410900B901B
:101BE00000230F93289BCDF838B0092B5C4499D97A
:101BF0000023CDE9283301254FF0FF330C950693E0
:101C0000039B00215964069B1893039810F0ACFACB
:101C10000A90002800F0BD85039B0A9A1A64069B6F
:101C20000E2B00F21581002D00F012810E9A002A71
:101C300040F33B84B24D02F00F0305EBC303D3E93D
:101C4000008913461511DA0540F1FA83AD4BDDE941
:101C50000801D3E90823FEF7C9FFCDE9120105F019
:101C60000F0503277DB1A74EEB0708D5404649462F
:101C7000D6E90023FEF790FE0137804689466D10B5
:101C800006F10806F0D142464B46DDE91201FEF7A7
:101C9000ADFF80468946109B43B19B4B00224046D6
:101CA0004946FFF7D9FB002840F0F1843846FEF79B
:101CB00009FE42464B46FEF76FFE944B0022FEF7AC
:101CC000B5FC069B0646A1F15077002B00F0A980D9
:101CD0000E9B1993069B12930A9B894D49464046D9
:101CE000CDE914675E1CFFF78FFC129905EBC10369
:101CF00053E902120746CDE91612FEF7E3FD02464C
:101D00000B4640464946FEF78FFC89460C99303712
:101D1000DDE916238046FFB2002900F053847C4998
:101D20000020FEF763FFDDE91423FEF77DFC0A9D2A
:101D300002460B46CDE914232F7042464B46FFF76F
:101D4000A9FB002840F09784CDE91AB4CDF858A03B
:101D5000129DDDE914AB00272AE00137AF4280F283
:101D6000DE846C4B504659460022FEF715FE694B47
:101D7000002282468B4640464946FEF70DFE8946C4
:101D80008046FFF741FC0446FEF79CFD02460B46E9
:101D900040464946FEF748FC303406F8014B5246AF
:101DA0005B4680468946FFF757FB002840F0B48425
:101DB00042464B4654490020FEF736FC52465B46ED
:101DC000FFF74AFB0028C8D0199BDDF858A00A9AF3
:101DD000374603F1010802E0974200F07C843E465A
:101DE00017F8013D392BF7D00133DBB23B70454684
:101DF00075E10123002C1093BFF682AEC8F10103F8
:101E00000B9300247EE63846FEF75CFD42464B46C7
:101E1000FEF7C2FD3D4B0022FEF708FC0646A1F18D
:101E200050773D4B404649460022FEF7FDFB3246C7
:101E30003B4680468946FFF72DFB002840F05A8438
:101E400040464946324607F10043FFF705FB28BBF1
:101E50001D9B002BC0F292800E9A0E2A00F38E80FA
:101E6000274D0E9B05EBC305D5E90034CDE90434BD
:101E7000299B002B19DA069B002B16DC0ED1264B72
:101E80000022DDE90401FEF787FD02460B46DDE98D
:101E90000801FFF7EBFA002800F02C844FF000094E
:101EA0000A9E4F46299BDD4325E2DDE90445DDE935
:101EB000088922462B4640464946FEF797FEFFF723
:101EC000A3FB0646FEF7FEFC22462B46FEF764FD0A
:101ED0000A9F0B46024649464046FEF7A5FB06F11F
:101EE000300307F8013B069B012B00F0128301250C
:101EF000CDF818A09946DDE904ABA8462CE000BF58
:101F000000860108D88501080000F03F00001C4051
:101F10000000E03F000024400000144052465B46B1
:101F200020462946FEF762FEFFF76EFB0646FEF7E7
:101F3000C9FC52465B46FEF72FFD08F101080B462F
:101F4000024629462046FEF76FFB06F13003C845DE
:101F500007F8013B00F0DB82B94B0022FEF71CFDC5
:101F60000022002304460D46FFF76CFA0028D5D066
:101F70000E9DDDF818A001353E46B0E00C9A002A0F
:101F800040F0D28000230F9D0B9E0C931F4656B14C
:101F9000002C08DDA6420B9A3346A8BF2346D21A6E
:101FA0000B92F61AE41A0F9B53B10C9B13B1002D40
:101FB00040F0E88251460F9A039810F08BFA82465F
:101FC0000398012110F0A2F98146BBF1000F40F007
:101FD000B681289B012B40F3CC810120204410F0D6
:101FE0001F0000F09A80C0F12003042B40F3DA8137
:101FF0000B9BC0F11C0003440B93064404440B9B51
:10200000002B05DD514603981A4610F0BDFA8246B2
:10201000002C05DD49460398224610F0B5FA8146AA
:10202000109B002B40F07081069B002B40F34881F1
:102030000C9B002B40F0A4800E9D0135DDF828801C
:10204000069CDDF80CB0012607E0514600230A2269
:10205000584610F0B9F801368246494650460FF00E
:102060009DFEA64200F1300308F8013BEDDB069A25
:10207000002AC8BF16460A9AD8BF012602EB060BF3
:102080000024514601220398049310F07DFA49463A
:10209000824610F0F1FA002840F3E3810A9A02E048
:1020A0005A4500F0E9815E460BF1FF3B16F8013C12
:1020B000392BF5D001338BF80030DDF80C80494620
:1020C000404610F077F857B12CB1BC4203D02146FE
:1020D000404610F06FF80398394610F06BF80398FB
:1020E000514610F067F8002333702A9B1D602C9B2B
:1020F000002B3FF494AC0A981E601FB0BDE8F08F2F
:102100005846FEF7DFFB32463B46FFF79BF90028B7
:102110007FF4DCAC0BF1FF3BD8E41C230B9A1A4490
:102120000B921E441C446AE7289A012A40F3A981B5
:10213000069A0F9B551EAB42C0F26B81002AA3EB9F
:10214000050580F2DD820B9B069A9E1A03980121F9
:1021500010F0DCF807461AE7C3F1200306FA03F093
:1021600081E40125E4E43946002303980A2210F0B3
:102170002BF8189B002B074640F3EF820E95069331
:10218000002E00F33F81BBF1000F40F0DF81B84625
:102190000A9E069C731E1C44049B0C9403F00103CE
:1021A000039C0F93494650460FF0F8FD394683468D
:1021B000504610F061FA424649460546204610F066
:1021C0007BFAC26801460BF13003002A3AD108902D
:1021D00050460B9310F050FA0899069020460FF0E5
:1021E000E9FF069A0B9B002A5AD1289A1AB90F9A2E
:1021F000002A00F09A82002D45DB0C9AB346B242C9
:102200000BF8013B00F0B981514600230A22204619
:102210000FF0DAFF4745824639464FF000034FF092
:102220000A02204636D00FF0CFFF41460746002372
:102230000A2220460FF0C8FF5E468046B2E700BF84
:1022400000002440039806930FF0B4FF002D069B76
:1022500006DB049A289902F001020D432A432AD191
:10226000514601220398049310F08EF949468246A4
:1022700010F002FA0028049B40F3E880392B00F0AC
:102280002F820BF131030E9D06F8013B3C460135D0
:10229000474612E70FF098FF5E460746804681E703
:1022A000002DC0F27D8228990D430F990D4300F057
:1022B0007782002AA1DD392B00F012820133E2E798
:1022C000289B022B7FF7B4AE069B002B40F01D81AC
:1022D0004946052203980FF077FF01468146504694
:1022E00010F0CAF9002840F310810A9E0E9D312398
:1022F00006F8013B01350398494601350FF05AFFB6
:10230000002F7FF4E8AEEAE64946504610F0B4F9F3
:102310000028BFF689AE5146002303980A220FF029
:1023200053FF0E9B5D1E0C9B8246002B7FF41BAF60
:10233000189B002B40F3FF810E9D06937EE601461D
:102340005A46039810F0C6F8289B012B81466CDD95
:102350004FF0000BD9F8103009EB830318690FF028
:1023600083FFC0F1200039E6924B0A930333FFF755
:10237000FABB049B002B7FF430AEDDE90412C2F3FC
:102380001303002B7FF429AE8B4B134023B10B9B1F
:1023900001330B9301340123BBF1000F40F0AE81F8
:1023A0009B461AE63FF42BAEC0F13C03B6E6012390
:1023B0000C93299B0E9A134418930133012B1E464C
:1023C0000693B8BF0126172E40F3D58101220423BE
:1023D0005B0003F11400B042114602F10102F7D98B
:1023E000039B596411E401230C93299B002B33DDDB
:1023F000189306931E46E6E700230C93D9E70023C3
:102400000C93F2E739460398324610F0BDF80746C0
:10241000B9E60F9B069A0F95EB1A9B440B9B1E4641
:10242000134414440B93002590E6049B002B8FD19A
:10243000DDE90401C1F313030A46002B88D1A3E7A9
:10244000DDE908230227CDE912230BE47FF41BAF5B
:10245000DA077FF518AF11E7012329930693FFF7F9
:10246000CFBB03D1049BDB073FF518AE5E461BF8DC
:10247000013D302BFAD020E60A9A31230135137042
:102480001BE6119A002A00F0F98003F233430B9AFD
:102490000F9D16461A441C440B9257E6C8F10103DF
:1024A00004460B931090FFF79BBB00F0EB800E9B54
:1024B000424D5E4206F00F0305EBC303D3E9002350
:1024C000DDE90801FEF768FA3511CDE9120100F0E7
:1024D0004D813B4E0023022780468946E80709D5F7
:1024E000D6E9002340464946FEF756FA01378046B2
:1024F000894601236D1006F10806EFD1002B7FF409
:10250000CAABDDE91289FFF7C6BB0A9ECAE4DDF853
:1025100018A00E9D02460B46FEF788F802460B46B1
:10252000CDE906230135DDE90423A846FEF7B2FF15
:1025300040B9DDE90423DDE90601FEF783FF18B1A8
:10254000F10701D50A9A4AE43E46C8E5796803983E
:102550000FF00AFE0546002800F026813B69023391
:102560009A0007F10C010C30FEF79EFF03982946F4
:10257000012210F009F880460AE60E9D3C4601351E
:1025800047467EE5DDF80C8039462A4640460FF086
:10259000A1FF52460146074640460FF0E5FE514670
:1025A000824640460FF006FE0F9B5B1B0F933FF4E5
:1025B00007ADFFE4409701080000F07F00860108A6
:1025C000D8850108DDE91401FEF7E6F90A9B1F70C2
:1025D000129B012BCDE90C0100F0C680129F0A9BD3
:1025E000CDF844B01F447C4B002240464946FEF7DC
:1025F000D3F989468046FFF707F88346FEF762F96C
:102600000BF1300B02460B4640464946FEF70CF8EC
:1026100006F801BBB74280468946E4D1DDF844B0F4
:102620006E4B0022DDE90C01FEF700F802460B4676
:1026300040464946FEF72EFF002867D1DDE90C230E
:1026400066490020FDF7F0FF02460B46404649462A
:10265000FEF702FF48B91D9B002BFFF693AC0E9BC3
:102660000E2B3FF78FACFFF7FCBB3E46013F16F841
:10267000013C302BF9D0199D013530E51C9BC3F18D
:10268000360304E7DDE908890227FFF704BB069B50
:10269000002B3FF4B8AB189B002B7FF7D9AB0E9AF9
:1026A0001293013A4C4B1992404600224946FEF7DC
:1026B00073F980468946781CFEF704F942464B467A
:1026C000FEF76AF9464B0022FDF7B0FF0646A1F17E
:1026D0005077FFF701BB08F101083123FFF786BBF4
:1026E0000E9D0A9AB34639233C460BF8013B01354F
:1026F0004746D8E44FF000094F46F6E59B4629E6E9
:102700000B9B1E46134414440B931FE5199B0A9A16
:1027100003F10108FFF763BBDDF858A0ABE7DDE983
:102720001AB4DDF858A0FFF793BB392BD8D0002D91
:102730003FF7A7ADA7E5289B022B0ADC189B069361
:1027400049460E9D0FF02AFB0A9A00F130031370E0
:102750008DE4189B06930E95B6E5289B022BF8DCBA
:10276000189B0E9506930BE5374659E7DDE912896C
:102770000227FFF790BA039B00215964FFF745BA7F
:10278000039B00255D64294618460FF0EDFC0A9076
:10279000A8B9144B144800224FF4D57110F058F921
:1027A000002A7FF770AD5BE50E4B0F482A4640F2DA
:1027B000EA2110F04DF90D4B0A93FFF730B9039B56
:1027C0000A9A1A644FF0FF330122299518930C924C
:1027D0000693FFF73DBB00BF000024400000E03F30
:1027E00000001C40449701085897010834970108DD
:1027F0002DE9F04389B03C4815F002F800283AD0A2
:10280000002003F009FC0146002834D1142203A85B
:102810000DF064F8354C0DF1060305930223206892
:10282000069314F0EDFF08B3637943B3214651F8E2
:10283000060B83681B689847021E22DB2C4FDFF8CB
:10284000B4800126637933B1237906FA03F3049344
:10285000E389ADF81C302068836803A95B6898475A
:10286000011E13DA404611F016FFEBE723682248F9
:10287000196811F010FF002009B0BDE8F0836FF077
:1028800085021E48002111F006FFF4E76379BDF8C8
:1028900006903BB9384611F0FEFE002164200BF093
:1028A000E7FFCFE7E379A27AA57BA079042B09BFE4
:1028B0002368A3899B681B89920648BF05F1FF35F1
:1028C00003FB09F302A948BFEDB2029308F0E8FA4E
:1028D000002805D102982841494600F04DF8DCE770
:1028E000D8DB4846F8E700BF6481010800080020F3
:1028F000E5980108D09801088A980108AE98010867
:10290000024B01221A600020704700BFD026002031
:10291000064B00201860064B1860064B4FF47A7285
:102920001A60054B64221A60704700BFD026002051
:10293000C82600201408002010080020064A106055
:10294000064A034600201060054A10600A2293FBE5
:10295000F2F3044A1360704714080020C8260020D0
:10296000C426002010080020024B1B6803600020D2
:10297000704700BF140800202DE9F8432F4B1B6857
:10298000012B3CD12E4C2F4F25682F4C3A682468E0
:10299000DFF8B880A242D8F800302D4C40D19D42DB
:1029A00030D1DFF8B090D9F8000090FBF5F0FEF7D9
:1029B000BFFA294606462848284D11F0EAFD284B63
:1029C000284A1B682860190102EB03135158264856
:1029D0001A79096811F05FFE2868FEF74DFC05467C
:1029E0003046FEF749FC2A460146204811F053FEC6
:1029F000002323603B60C9F80030C8F80030002095
:102A0000BDE8F8832568144E46F825000135256099
:102A1000104C2068013308442060C8F8003009E0F9
:102A20002668DFF834C09D424CF8260006F1010606
:102A30002660EDD10A323A60E1E700BFD0260020DF
:102A400010080020C826002014080020C4260020FA
:102A50001C1700201817002020170020C026002077
:102A6000CC260020000800200399010816990108CF
:102A700038B5134604460A2258680E4D00210DF061
:102A8000D1FB0D4A286003460821204612F07DFD47
:102A900029680A4811F0FFFD2868FFF74FFF054637
:102AA00030B9074A2046082112F06FFD284638BD8C
:102AB000044AF7E7D4260020309901084899010814
:102AC000689901086C99010837B50023044601A8EC
:102AD0000193FFF749FF054688B90C4A08212046B3
:102AE00012F053FD08212046019B094A12F04DFDCA
:102AF0000199074811F0CFFD284603B030BD054AC3
:102B00000821204612F041FDF6E700BF6899010850
:102B1000489901086C99010838B50546FFF7F8FE99
:102B2000044648B92846074A082112F02EFD0648F7
:102B300011F0B1FD204638BD044A0821284612F0A4
:102B400024FDF7E768990108719901086C9901085B
:102B500038B50546FFF7D4FE044680B90B4A082174
:102B6000284612F012FD0A4B0A4819681A790968BA
:102B700011F091FD084811F08EFD204638BD074A3E
:102B80000821284612F001FDF7E700BF6899010807
:102B900000080020039901087F9901086C99010839
:102BA00013B504F0C7FF044604F0C4FF0423826891
:102BB0000093D2F8602203490123204605F012FD5C
:102BC00002B010BD6481010838B5054604F0B2FFBB
:102BD000A842044607D02846084A012112F0D5FC35
:102BE0006FF0150038BD064A082112F0CEFC2046D1
:102BF000044912F07EFC0020F4E700BFF6990108BA
:102C00001D9A0108092C000810B5084CA3682BB1C7
:102C10009B6C1BB10649002220469847A3689B6A1B
:102C20001BB1BDE810400148184710BD6481010880
:102C3000352C000870B5044683685B6C03B1984777
:102C4000A3685B6B9BB9234D234EA3689B6923B19B
:102C5000012229462046984768B13378002BF4D1E9
:102C6000A368DB69002BF0D020469847EDE72046AB
:102C700098470028E7D1A3685B6A63B9164D2B78A3
:102C800073B9A3685B691BB11249012220469847BA
:102C900001232B7003E0204698470028EED170BD39
:102CA00000232B70A3681B6A0BB120469847094B81
:102CB0001B78782BF3D1A368DB6A0BB120469847C9
:102CC0000648074914F07AFEBDE8704003480BF04F
:102CD000A5BA00BF6035002061350020D82600204D
:102CE000A12B00082DE9F84300AF81468846154620
:102CF00000F0BAF8C36804461BB943691A78002A81
:102D000055D10023E36063684B4558F8232009DB65
:102D1000444B6361204600F08DF84FF0FF30BD4614
:102D2000BDE8F883511C616116782D2EF0D1911CFD
:102D300061615178A1602D2904D1927862B9013383
:102D40006360E5E741B9374B6361314628460CF0D3
:102D500079FE0028DED0A660A668284631460CF031
:102D600071FE3A2E626900D030BB137813B96368E4
:102D7000013363602368ABB12B783A2B12D02A4819
:102D8000036859070ED06D4688B06A46274BC2E9E2
:102D90000536032342F8103F00234FF4C25101F0DF
:102DA0001DFFAD46204600F045F83F20B7E75A1C0E
:102DB00042611B788360CFE743783A2B0BD0002326
:102DC0002361137813B9636801336360204600F010
:102DD00031F8A068A3E71378616812482BB9013174
:102DE0008945616004DD58F82120C4E90420EAE740
:102DF00060612D783A2D04D1204600F01BF828465A
:102E00008DE72268002ACDD0074802685207C9D052
:102E10006D4688B06A460649C2E90516032142F8A4
:102E2000101FBAE715A70108C40B0020D99A0108A2
:102E3000EE9A0108074B02681A60074B42681A6055
:102E4000064B82681A60064BC2681A60054B02691D
:102E50001A6070473408002030080020F026002057
:102E6000EC260020E82600200048704718080020C3
:102E70002DE9F04F91B08407009302F00403029310
:102E8000C2F3C20303F10103DDF868900392054623
:102E90000E46059340F0BA81041D30B1072909D8C8
:102EA0006FF01B0011B0BDE8F08F01F00706341D74
:102EB000C6F10806009B4FF00008591E4FF0040AA7
:102EC0004FF0FF330193CDF810804746C346534679
:102ED0000DB1009A22600598002800F3E880984818
:102EE000009A824203D397488242C0F0E080039A5E
:102EF000A4EB050E92074FEA9E0000F103810F2F0D
:102F000000F2B180002D00F0058107F140020DEBC9
:102F1000020C019A0CF8200C0CF8102C04980130CB
:102F20000490E7E07A285DD84B280ED8472859D876
:102F300029282DD8252852D054D820287AD02338B3
:102F4000D0F1000B4BEB000B74E04C382E2849D825
:102F5000DFE800F070484848484848484848484832
:102F60004B484848484848484859484B4B59595994
:102F7000704B6D487048184B184848827F4B484842
:102F80004B487F0000204FF0000B4FF0040A38E060
:102F90002A38C0B2012202FA00F010EA0E0F49D11D
:102FA00010F0625C2FD110EA020B43D06046013C66
:102FB0005444B4FBFAF40AFB04F4002D61D0A3EBF3
:102FC000050CA4446645FFF46BAF002868D1042BC0
:102FD00047D159F8043B2360043404232AE0019AC2
:102FE000013A01924FF0000B24E011F8010C6C281B
:102FF00034D111F8023C00206C2B8346C5D14FF030
:10300000080A5346D3E709F1070929F007090734ED
:10301000F9E802AB24F0070435B106982044B04229
:103020003FF63EAFC4E900AB08344FF0000B4FF061
:10303000080A534611F8010F002878D0BBF1000FA1
:103040007FF470AF2528F5D1019B013301934FF038
:10305000010B4FF0040AECE7584694E70020834642
:10306000A5E7082B02D06FF015001BE709F107094F
:1030700029F00709F9E80223C4E9002308340823EA
:10308000D8E768B9042B02D109F10409A4E7082B99
:10309000E9D109F1070929F0070909F10809EDE764
:1030A000059A013A059259F8042B009210E7039A09
:1030B000900720D5A4EB050E4FEA9E004FF0010CBF
:1030C000BEF5007FCFD20F2FCDD8F5B107F140026A
:1030D0000DEB020EC0B2019A0EF8200C0EF8102C67
:1030E000BCF1000F3FF41AAF60F07F000EF8200C27
:1030F00008F101080137C5F10802043406924FF6C1
:10310000DA7E97E74FF0000CDAE7BCF1000F01D050
:103110000136EFE7029802360028EBD10098CDE99E
:103120000631FDF74DF8DDE906310644E2E7631BA1
:10313000B3F5806F97D23DB9A6F10804E018B1E667
:10314000E87F010838C70108029A28609B082B70A5
:103150009DF81030C2B1EB7085F80280B8F1000F15
:1031600005D008A80022C5F1010C97420ED1C5F187
:1031700001030DF120094FF0000A01930DF1300B0E
:10318000574512D1601B8DE66B70E5E710F8013BE7
:10319000190608D504EB0C0E764503F07F03FFF407
:1031A0007FAE04F8013B0132DFE7B8F1000F03D036
:1031B00099F90020002A17DB029BD3B11AF80B20E3
:1031C00004F8012B0022019B981820448642FFF44A
:1031D00067AE99F8000004F8010B009903922046AD
:1031E000FEF762F9039A14440AF1010A09F1010990
:1031F000C6E799F8002055F822300093029B45F865
:1032000022300098FCF7DCFF421CDCE76FF00D0079
:1032100048E600BF2DE9F04F95B000AF90F802B03E
:10322000BB61BB6F7A62C3F3C00304463B618A464D
:1032300041B9457800780BEB80002044554517D8FC
:10324000A0EB040AE3787B61BBF1000F02D0BB6FF7
:10325000D80716D47B6953BB7B6A1BB1BA69514648
:1032600020469847554628465437BD46BDE8F08F5E
:10327000461C3046FCF7A4FF013030440AF1010A35
:10328000DCE723783B629B00FB603B6A6268FA6183
:1032900004EB83097B6A002B40F002815546C84647
:1032A00009EB0B0A0026D04555D1D94413E0BB6F7A
:1032B0009907D1D523783B6299469B00FB606368F0
:1032C000FB617B6A04EB8909002B7ED15546BBF17B
:1032D000000F53D15E46BB6F13F0050F7B6909EBFE
:1032E000430ABB6F03F002030CBF4FF0020B4FF019
:1032F000010B7B62D145B6D019F8021B19F8013CCD
:1033000054F82380AA4B984502D3AA4B98453CD346
:103310003B69002B46D0F86911F083F9002841D0B1
:10332000A548036813F0060F13D0E8468AB06A4632
:10333000A24B5361FB69C2E906314FF40073138459
:103340009F4B42F8103F00234FF4125101F046FC0E
:10335000C546023DCEE718F8013B54F82300FCF7C0
:103360002FFFFB6F01303BB1D7F880309E423EBF4C
:10337000FB6F23F816000136054494E7BB6F13F08A
:1033800004061CBF7E6AD944A5E73B6923B1F869EE
:1033900011F047F90028C3D1BB6FDA0705D4A5EBBC
:1033A0000B05A7E77B6A002BA4D04046FCF708FF7B
:1033B000FB6F43B1D7F880309E423FBFFA6F431C8A
:1033C00022F816300136054494E7BBF1000F6DD0AA
:1033D000BB6F13F004066CD0D846002607F14000FE
:1033E0005A464946FEF760F87B695B007B607B6963
:1033F000D94409EB4303BB60BB6F03F002033B609E
:10340000BB684B4557D1B96F6378B86F890706EB36
:10341000030254BF4FEA58010021C507D2B200F1A0
:103420009A8010F0040F14BF40460020FB616270C8
:10343000A070E170BA69F9687B6A20469847051E5A
:10344000FFF611AF3B6A2370FB6963707B69E37021
:103450004146BA697B6A84F802B007F14000984798
:10346000B0F10008C0F2AE80FB68BA69AAEB0B01AC
:10347000C91A7B684846C91A7B6A98470028C0F277
:10348000A380A84408EB00054FF0000B07F1300AB9
:10349000B34562D30021BA697B6A08469847E2E6E1
:1034A0005E464FF0000807F1300099E75E46D846C7
:1034B0009AE7B04698E719F8021B3D4B19F8015CF2
:1034C00054F82500984202D33A4B98421DD33B69E9
:1034D00023B1F86911F0A5F8002891D13B68FBB938
:1034E00008F1280307F1280208F1010003EB020CA0
:1034F00007F1500353FA80F008F102080CF8101C91
:103500005FFA88F800F8105C7AE73B692BB1F8693C
:1035100011F087F800287FF473AFBB6FDB0709D584
:1035200006F1280307F12802711C9E1806F8205C9A
:10353000CEB265E7BB6F58077FF562AF08F128038D
:1035400007F1280208F1010103EB020808F8105CFA
:103550005FFA81F854E7002068E71BF80A3087F823
:103560002F3054F82390FB6FFBB133F81B80BA69FE
:103570007B6A012107F12F009847002824DB0544CE
:10358000B8F1000F06D14846FCF71AFE00F1010819
:103590001FFA88F8BA697B6A41464846984700286E
:1035A00012DB05440BF1010B72E7D7F87C80DEE7F4
:1035B000E87F010838C70108C00B0020179B0108ED
:1035C0000400000145464EE605464CE6014B1860F6
:1035D000704700BF3808002030B587B00025CDE91E
:1035E00003010446009503A90548059500F0E4F899
:1035F000DDE904309842B8BF255407B030BD00BFA4
:10360000714601082DE9F84344690569C76840F22D
:103610006C73E1170135E41841F10001022D8CBFF4
:1036200000230123E41A61F100010029064607F195
:10363000FF3751DA6FF4C77020184FF4C8724FF09B
:10364000000361F10001FDF73DFE264B03FB004442
:10365000D6E90083B6684FEAE37C4FF03C0E99460A
:103660006346C6FB0E93A9FB0EC60EFB0366A308BA
:1036700040F26D1E022D0EFB043302463B448CBF0C
:103680006FF00200092064270544B4FBF7F4992089
:103690001B1B154C45431CEB080C4FF0050005F1B6
:1036A0000205B5FBF0F5A2FB04202B4404FB01014D
:1036B00046EBE87698180D4A41F1000380180C4A51
:1036C00063F10003A0FB020102FB031110EB0C00ED
:1036D00041EB0601BDE8F8834FF4C8720023204691
:1036E000B1E700BF70FEFFFFB13A02009405F5FF9D
:1036F00080510100F0B5094E016802460A270020FA
:103700000B4601311C78355D6D0701D41360F0BDA7
:1037100007FB0043A3F13000F2E700BFCD9501089D
:103720002DE9F84F15469A46D378224A12F803B08D
:103730006F2B80460F460BF0030B29D024D8582B53
:103740000CBF10260A26DDF828903246002340469A
:103750003946FDF707FE092AD4B21ED83034B045E9
:10376000E4B277F1000709F8014D01D3D14511D832
:103770002B789B0605D5082E15D1AB7843F00803AE
:10378000AB704846BDE8F88F03F0F703702BD7E71E
:103790000826D8E780460F46D7E7BBF1010F0CBFDC
:1037A00037345734DBE7102EEBD1AB7843F01003FE
:1037B000E6E700BFCD9501082DE9F04F9FB08246A6
:1037C000039116461C460025307810B9284600F0B3
:1037D00087BD731C2528069306D00399D04700287F
:1037E000C0F27E8501351FE21822002110A80CF0DE
:1037F00075F87378252B00F0BC800023711C984667
:103800009E469C4618460F4611F8012B2B2A00F0C5
:10381000DF8000F2D680202A00F0DD80232A00F02D
:10382000DD802BB19DF8483043F040038DF84830DF
:10383000B8F1000F05D09DF8483043F020038DF813
:103840004830BEF1000F05D09DF8483043F010031A
:103850008DF84830BCF1000F05D09DF8483043F09A
:1038600008038DF8483028B19DF8483043F0040330
:103870008DF848309DF8483003F04401442903D1C5
:103880006FF386138DF848309DF848300E9743F05B
:1038900080032A2A8DF8483040F0A5809DF84930F1
:1038A00043F001038DF849307B1C1A782E2A9DF8CD
:1038B00049200CBF0121002161F341028DF849200C
:1038C0000CD15A1C0E925A782A2A40F09C809DF8FE
:1038D000492042F004028DF8492002331A786C2AFC
:1038E00000F0BD8000F29F80682A00F0A5806A2A5F
:1038F00000F0BE804C2A00F0C38013F8012B069321
:10390000782A8DF84B2000F205816D2A00F2C580DF
:10391000692A00F2FF80572A00F2DE80412A04D093
:10392000A2F14503022B00F2F5809DF84A3002F027
:10393000DF020421A2F1410861F30203D8F1000281
:103940009DF849108DF84A3042EB080262F3C71126
:103950000A068DF84910CBB200F11B8103F0780202
:10396000182A40F005816FF3C6038DF84930002313
:10397000F4E0B21C06928DF84B309DF84930DF0719
:1039800040F1098154F8042B0492002A08DA9DF8CA
:10399000482042F004028DF84820049A52420492D2
:1039A000580740F1008154F8047B002F80F2FF801B
:1039B0009DF849306FF341038DF849304FF0FF37E0
:1039C000F5E02D2A0DD0302A7FF42BAF01231AE722
:1039D0004FF0010C17E74FF0010E14E74FF001080C
:1039E00011E701200FE70EA8FFF784FE0E9BBB42F4
:1039F0003FF45BAF9DF848201390C00F60F3410285
:103A00008DF8482051E70EA8FFF774FE9DF8483066
:103A10001490C3F3400242EAD07262F341038DF87E
:103A200048300E9B5AE7742A26D07A2A7FF465AF75
:103A30009DF8492006210CE05A78682A9DF8492013
:103A400006D1012161F3C6028DF84920023354E703
:103A5000022161F3C6028DF8492001334DE75A78FF
:103A60006C2A9DF8492001D10421EBE70321F0E7FE
:103A70009DF849200521ECE79DF849200721E8E75A
:103A8000BDF8482022F4F04222F0020242F48042C3
:103A900042F00202ADF84820DFE76E3AD3B20122CD
:103AA0009A4040F282431A429DF8493039D112F0CF
:103AB000240F61D1D1072DD59DF84A2003F078035A
:103AC000A3F1400C032161F30202DCF100038DF845
:103AD0004A2043EB0C0341E0A2F15801C9B2012096
:103AE00000FA01F111F4624F7FF41FAF40F60103B9
:103AF00019429DF849301AD111F4043F0AD09DF8BB
:103B00004A2060F3020203F07803402B8DF84A202C
:103B10007FF42DAF9DF8483043F001038DF8483015
:103B200025E79DF84A20022161F30202EBE79DF8A8
:103B30004A10022003F0780360F30201402B8DF855
:103B40004A1002BF9DF8481041F001018DF848105D
:103B5000632A7FF40CAF003B18BF01239DF8482077
:103B6000C2F340010B4363F341028DF8482004E7A0
:103B700013F0380FCED1FAE69DF84A20032113F056
:103B8000780F61F302028DF84A2014BF012300234D
:103B9000E4E70123E2E79DF94820002AB4BF139A25
:103BA0004FF0FF32FBE699077FF508AF149F9DF8B1
:103BB00049100023CDE913339DF84A3003F0070282
:103BC000042A07D18A0705D49DF94920002AACBFF1
:103BD00006270D2703F00703012BC1F3C30133D1DF
:103BE000CB1E042B04D8DFE803F021464621210038
:103BF000236801294FEAE372CDE910321CD19DF907
:103C00004030DA17CDE9103204349DF8483007937C
:103C10009B0750D0069B03993246504610F09AFD00
:103C20000028C0F25D830544069ECDE554F8043BB0
:103C3000DA17CDE91032E8E70229E5D11AB243F3E9
:103C4000C033CDE91023DFE7022B24D1CB1E042B98
:103C500004D8DFE803F0181010181800012954F8F0
:103C6000043B4FF0000214D00229CDE91032CCD130
:103C70009BB21093C9E7073424F00704F4E8022349
:103C8000CDE91023C1E754F8043B109300231193AE
:103C9000BBE7DBB2CDE7042B08D1073424F00704DF
:103CA000D4E900230834CDE91023AEE7032BACD1CF
:103CB00054F8043BDDE79DF84BB0BBF1780FB3D867
:103CC000BBF1570F49D8BBF1250F00F09180BBF134
:103CD000240FA9D9BBF1410F03D0ABF14503022B4F
:103CE000A2D8DDE91013002BC0F23781079A100724
:103CF00000F13681C2F300194FEA4919C3F30A50A3
:103D0000C3F31303002840F02E8151EA030614BFC9
:103D100001260026DB0243EA5153C902BBF1460FDC
:103D200040EA010E43EAE07C08BF4FF0660B5EEA12
:103D30000C0CCDE90C1300F09F81002E40F04A815D
:103D40000D9B43F00043A0F2FE380D930020DDE907
:103D50000C1306464FF0050C56E1ABF15803202B2F
:103D60003FF662AF01A050F823F000BFF93E000813
:103D7000293C0008293C0008293C0008293C00088F
:103D8000293C0008293C0008293C0008293C00087F
:103D9000E33C0008293C00087D3E0008913E0008F5
:103DA000E33C0008E33C0008E33C0008293C000831
:103DB000913E0008293C0008293C0008293C0008E5
:103DC000293C0008333F0008F93E0008FF3E000888
:103DD000293C0008293C0008F73D0008293C000860
:103DE000F93E0008293C0008293C0008F93E00087B
:103DF00003995846F2E4002F109E3BDB39463046CB
:103E00000BF05CFF002E3FF40FAF3718BB1B4FF0D9
:103E100000099DF84A2012F01001059100F055822A
:103E2000023312F04002DDF84C80089218BF149A59
:103E3000CDF81C80434418BF9B18049A002A40F315
:103E40005F82D31A04939DF848305807C3F3800B60
:103E500000F15682590640F14682B9F1000F07D0B1
:103E600003994846D0470028C0F23A820135D94626
:103E7000302339E23046FCF7A3F9C6E7109B8DF8F2
:103E80005C304FF000090DF15D0717AE0123C0E76C
:103E9000079B1E0758BFC3F30019DDE9102354BF69
:103EA0004FEA49194FF02B09002B06DA524263EB17
:103EB0004303CDE910234FF02D090DF17503009355
:103EC000DDE9100117AB12AAFFF72AFC0646002F06
:103ED0000CDB9DF848200DF175039B1B6FF38612D8
:103EE0009F428DF8482001D9FB1A1393002E3FF40E
:103EF0009BAE0DF175075BE04FF00009DDE7109810
:103F0000002800F0DD810DF17503009312AA17ABB4
:103F10000021FFF705FCBDF84A3003F0EF0343F43E
:103F2000F04343F010030646ADF84A304FF0000965
:103F3000CDE7109B07293FF677AEDFE801F00C04D0
:103F4000060C08080C0C1D706EE61D806CE6EA1766
:103F5000C3E9005268E61D6066E64FF02D09CDE624
:103F60004FF02B09CAE640F2FF76B0422FD10BF199
:103F700001029E48D2B20B43825C02F003021ED1C2
:103F8000012A0BBF492369234E216E210CBF462213
:103F900066228DF85C309DF848308DF85D106FF327
:103FA00086138DF85E208DF848300DF15F0717AE4F
:103FB000BB1BB9F1000F3FF42CAF013329E7012AF5
:103FC00015BF6E234E23612141211A46E1E70026E9
:103FD000A0E6013849185B41002BFADACDE90C1351
:103FE000AEE6490841EAC3715B08B3F1333F40468E
:103FF00008F10108F5D20CFB03FEA1FB0C1300F144
:1040000002087344013E012018F1020FE9DB08B1F8
:10401000CDE90C13B8F1000FDDE90C312FDCC8F14C
:10402000040008F11C08A0F1200CC34021FA00F2A2
:1040300001FA08F80BF0DF0043EA080321FA0CFC50
:10404000472843EA0C0308923AD1F11C01DBB7423E
:104050002BDAABF10202002F5FFA82FB7FDD9DF8C5
:104060004800820607F1FF3779D43A1E18BF0122B3
:10407000059207F101082DE04FF0000866E60233D3
:1040800041F100010CA8CDE90C3110F034FBDDE961
:104090000C3108F1FF380136DB184941002908F1DD
:1040A000FF38F9DACDE90C31B4E79DF848209006E5
:1040B000A7EB060751D43A1E18BF0122059204E06F
:1040C0000022BBF1660F0592D3D117EB06084FF023
:1040D000660B46D4B8F1100FA8BF4FF0100810209F
:1040E0000B904FF000610020CDE90E01DDE90E02DA
:1040F000B8F1000F38D1C018089B42EB0303B3F1AD
:10410000805F3FD2CDE90C03079BBBF1660F03F044
:10411000200340F0B480002E3FDC30218DF85C108D
:10412000002B65D1002F40F3AE812E238DF85D303A
:1041300086B17342BB42A8BF3B469DF84A10139319
:10414000002BA7EB0307D4BF0023012363F3451122
:104150008DF84A100DF15E0837E00022AEE700222C
:1041600086E74FF00008BAE7400840EAC2705208FC
:10417000CDE90E020EA8099308F1FF3810F0BBFA42
:10418000099BB3E7400840EAC3705B08CDE90C0324
:104190000CA810F0B0FA0136B6E70DF15C080B99E7
:1041A000002909DD0BA90CA8079310F0BCFA013E09
:1041B00008F8010B079BF2D113969BB9002F40F32F
:1041C00060812E2108F8011B0026002F19DD0B9BB2
:1041D000002B16DD0BA90CA810F0A5FA013F08F87A
:1041E000010BF2E72E2308F8013BEDE7CC9501081F
:1041F0002E238DF85D30002EACD0002F99DC0DF110
:104200005E08059B002B4ED1149747460BF0DF0349
:10421000452B23D1002EBABF76422D232B23632EAC
:10422000C8BF64217B70D1BFBA1CB6FBF1F3FA1C86
:1042300003F13000C8BF01FB13664FF00A01C8BF8D
:10424000B87087F800B0B6FBF1F3174603F1300001
:1042500001FB1363303307F8020B5370139B002BE1
:104260002CDC149B002BD4BF002301239DF84A2093
:1042700063F3861200238DF84A203B7097E60BA962
:104280000CA8079310F04FFA079B8DF85C003028BC
:1042900018BF06F1FF3613B9002F40F3F4802E2328
:1042A0008DF85D3056E7474608F1FF3817F8013CB6
:1042B000302BF8D02E2B08BF4746A7E70123D5E7C0
:1042C000724F81467E1F0523A3E5110748BF0133C6
:1042D000A7E5184609930399D0470028099B05DAFA
:1042E0001FB0BDE8F08F2023DDF810B05A46002A39
:1042F0000BF1FF3BEDDC049BCDF810B02B449D1A75
:10430000B9F1000F05D003994846D0470028E7DBF4
:104310000135089B002B79D09DF94930002B29DB12
:10432000DFF86C913346187819F8002052079B4645
:1043300003F101033FD49DF84A30AE1B98065E445A
:1043400007D44246002A08F1FF383BDC079B334480
:104350009E1A9BF800002E280AD10399D047002806
:10436000BEDBB8F1000F06F1010631DC0BF1010BE9
:104370005D4638E0B14699F800007028C84609F15A
:10438000010913D1AE1B149D46443544AB1B002BD1
:1043900034DC03993B464246504610F0DBF90028D6
:1043A0009EDB3044049E0546064465E00399D047F1
:1043B0000028E0DA94E705930399D0470028059B8D
:1043C000B1DA8DE703993020D0470028B9DA87E7C2
:1043D00003993020D04708F1FF38C0E70399D04750
:1043E0000028FFF67DAF287819F800305907A84655
:1043F00005F10105F2D4A6EB0B06C4E703993020C2
:10440000D0470028FFF66CAF0136BFE79DF84A3071
:10441000DA0601D41B0706D503993020D0470028BF
:10442000FFF65EAF0135059B3BB103999DF84B004C
:10443000D0470028FFF654AF0135A84406E00399A1
:104440003020D0470028FFF64BAF0135A8EB05031D
:10445000002BF4DC03993B463246504610F07AF9C3
:104460000028FFF63DAF28449CE703992020D04761
:104470000028FFF635AF0135731B002BF5DCFFF785
:10448000D3BB1E46BDE60DF15D08BAE6D09B010820
:10449000CD950108044B054A1A60054A536843F05C
:1044A00001035360002070479009002000127A0039
:1044B000002004E02DE9F047DFF858800446074665
:1044C0004FF0010914B93846BDE8F08794FAA4F515
:1044D000B5FA85F509FA05F32E0108EB05156FEA23
:1044E000030A24EA03042B7B002BEBD058F8063098
:1044F0001B694BB94644042273682846196807EAC9
:104500000A0700F02FFBDDE7284698470028D9D19D
:10451000F0E700BFE084010830B51049104889B0C9
:10452000002213F0C2FB0F4D0F4900220023CDE9FA
:10453000062300240E23CDE90334CDE901440B4BBF
:1045400000944FF44072284609F0EAFB08492846D7
:1045500009F014FB204609B030BD00BF75450008C6
:1045600008120020380D0020C03500208D480008BA
:1045700016A00108014809F00DBD00BF380C00204D
:104580002DE9F04780461E480F4610F021FC0646F4
:1045900078B300252846BDE8F087237B73B12368F4
:1045A000DB680BB12046984723681B69CBB9636869
:1045B00004221968204600F0D5FA013610344C4523
:1045C000EBD3B8F1000FE5D0002DE2D02846FFF77D
:1045D00071FF0546002FF7D0002164200AF048F94A
:1045E000F2E7204698470028E1D00AFA06F31D4377
:1045F000E3E7044CDFF8109005464FF0010ADEE7D0
:1046000004270020E0840108F0840108014B53F8DE
:10461000200070476C87010808B5034608462BB197
:10462000044A136000F080FD002008BD6FF0150003
:10463000FBE700BF3C08002010B5044C237813B9F9
:10464000034809F0A7FC0123237010BD6235002048
:10465000380C002010B50446084810F0B9FB5CB1D6
:10466000BFF35B8F064B53E8001F013943E800128C
:10467000002AF8D1BFF35B8F10BD00BFFC260020DD
:10468000002700200020064BBFF35B8F014653E854
:10469000000F43E80012002AF9D1BFF35B8F704787
:1046A000FC26002070B5FFF7EDFF084C084E0546CC
:1046B000B44200D370BD63685B792BB123685B683B
:1046C00013B12946204698471034F1E7E0840108E9
:1046D000F084010810B5044C0449204610F0F3F9A9
:1046E000034B1C6010BD00BF740B002058870108ED
:1046F000F4260020094A0A4808B500231370094A25
:104700001360094A4FF47A711360FFF785FFFFF7D2
:10471000E1FFBDE8084000F07DB900BF633500202F
:10472000EB4D0108FC260020002700200146002256
:104730000148002310F0E8B9740B0020014810F084
:1047400081BA00BF740B0020024B0146186810F0BC
:10475000CBBA00BFF4260020014810F001BB00BF17
:10476000740B0020F8B5314B187800285DD0FFF7A6
:10477000E5FF044690B1BFF35B8F2D4B53E8001F5C
:10478000013943E80012002AF8D1BFF35B8F294DAD
:10479000294EB54226D32046FFF7D6FF274B284C9B
:1047A0001B68002B12DD13F07EFA0A220023FCF7AF
:1047B000D9FDD4E90032C01A40F2E93361EB0201BD
:1047C000984271F1000101D3FFF76CFFD4E9003288
:1047D00013F57A7342F10002C4E90032BDE8F840F3
:1047E000FFF7BABF6B685B793BB121784B0706D501
:1047F0002B6821461B68284698471035C9E723884F
:10480000626813F4E07FC3F38217C1F3C201EFD0F3
:10481000002AEDD00B4BD21A42F38F020123284617
:1048200000F0BAF9B842E8D3E2E7F8BD62350020FB
:1048300000270020E0840108F0840108FC26002005
:1048400000120020B80B002070B50D4D297861B919
:104850000120FFF795FE0B4C0B4EB44206D3FFF739
:1048600081FF0028FBD101232B7070BD63685B7949
:104870001BB1236820469B6898471034EDE700BFC2
:1048800063350020E0840108F084010800212DE94F
:10489000F0470846FFF774FE044648B34FF4FA7831
:1048A0004FF0000909F0FCFF1A4B186030B11A4BA9
:1048B0001B68092B02DD194809F06CFB184FDFF863
:1048C0005CA0002544B12046FFF7F4FD044618B96A
:1048D0004FF0FF384FF0FF39FFF744FF064628B985
:1048E000B5B942464B46504609F07AFB3546E9E7F2
:1048F0004FF0FF384FF0FF39D4E72B689B691BB1AD
:1049000000221146284698471035BD42F5D3E8E706
:10491000044DFAE7F826002000270020380C00207C
:10492000F0840108E084010813B5184810F050FA2B
:10493000174B1B787BB14FF01003EFF3118483F317
:104940001288BFF36F8FFFF70DFF84F31188BFF359
:104950006F8F02B010BD0F4B1B68002BF9D050B900
:1049600000220023CDE900230B4842F210720023FD
:104970000AF0DEF9EDE70928EBD1074813F0A1F9B9
:10498000064802B0BDE8104009F004BB0027002033
:1049900063350020F826002008120020380C002083
:1049A00010B5064B1B68044698472146A060044892
:1049B00010F028F9BDE81040FFF7B6BF3C08002012
:1049C000740B002008B50A460146024810F0D5F9DC
:1049D000002008BD740B00200146014810F0D8B932
:1049E000740B0020024B0348C01AC008704700BF78
:1049F00058840108E0840108044A054B9B1AB1EB76
:104A0000D30F34BF52F8310000207047588401089A
:104A1000E08401080B480C4B30B51B1A0B4CDB082B
:104A200000210430994200D130BD10F831202568B2
:104A300002F0070225F007052A4344F8042B013150
:104A4000F0E700BF58840108E0840108B80B00209B
:104A5000F8B50B4F0B4DED1B0646ED080024AC429C
:104A600003D14FF0FF342046F8BD57F8340020B191
:104A70003146FBF719FC0028F5D00134EFE700BF01
:104A800058840108E08401082DE9F843884615465A
:104A90001E4698B9224FDFF88C90044609E038464C
:104AA00033462A464146FFF7EFFF844238BF0446AB
:104AB00010374F45F3D32046BDE8F8831A4B1B4A05
:104AC000D21AB5EBD20F28D203EBC5031C79B4423E
:104AD00028BF34464368164E1A7956F8253002EB43
:104AE00042020721914023EA010304F0070101FA81
:104AF00002F213430021032223FA02F000F0070020
:104B0000814202F1030238BF01461E2AF4D123F08C
:104B100007030B4346F82530CDE70024DAE700BF52
:104B2000E0840108F084010858840108E084010849
:104B3000B80B0020F8B5094D094BED1A06460F4693
:104B4000ED080024AC4200D3F8BD002122B23B4660
:104B500030460134FFF798FFA4B2F3E7E084010880
:104B60005884010838B50B4BC31A0D461B1111466A
:104B7000426801331371436804469971FFF7DAFF05
:104B800063681D60636801225A71BDE83840FFF711
:104B900053BD00BFE08401080146184663B1002AF6
:104BA00014DB4B680A491B7951F8220003EB4303DD
:104BB000D84000F007007047064B0749C91AB2EB0E
:104BC000D10F04D203EBC203187970470420704759
:104BD000B80B002058840108E08401082DE9F04F4B
:104BE0008FB004AFC1F34A28B8600D4691467B6090
:104BF0000C0DB8F1000F67D0002607F114034FF039
:104C0000040B4FF00A0AC7F80C80C7E907667E62FA
:104C10000193CDF808B0CDF800A007F11C03F968A6
:104C200032464846FEF7F6FAB0F5006F034620D349
:104C30002A48036813F0060F17D06C468AB0D9F8DB
:104C4000041004AB264DC3E9055140F2FF71D96150
:104C50001A464FF400711984224B42F8103F4FF46A
:104C600012513346FFF7BAFFA5462C37BD46BDE8C3
:104C7000F08FC0F30A0804F11700184420F0070071
:104C800080083B60FFF752FD68F35325044690B15E
:104C90003B68154AC7E9083600F1100107F1140313
:104CA000F961CDE900A3CDF808B0F96807F11C035C
:104CB0004846FEF7AFFA68F353257B68B9682A4681
:104CC000204610F0C3F8D0E704F1170020F00700E9
:104CD0008008FFF72BFD0446EDE700BFC80B00205E
:104CE000DA9B010804000001214E01082DE9F04F74
:104CF00087B0DDE91269DDE9105A04460F46934694
:104D00009846A6B31021CDF80090334652460020B5
:104D1000CDF81490FEF7ACF8014605F117000844F1
:104D2000144B039104F007040BF0070BE40020F090
:104D3000070003EA412344EA8B1480081C43FFF771
:104D4000F5FC44EA0554054640B13EB10399CDF85F
:104D50000090334652461030FEF78AF8434622460A
:104D60003946284607B0BDE8F04F10F06FB831461D
:104D7000D3E700BF00FE0F000EB403B503AB01463E
:104D800053F8042B0448019310F086F802B05DF844
:104D900004EB03B0704700BFC14E0108CA0605D43A
:104DA0008B064CBF02490349FFF7E6BF704700BFBF
:104DB00014A70108C89C01082DE9F04F89B09A4654
:104DC000DDE914739DF84CB00593169B179E06926F
:104DD00004460D460493BBF1000F00F0858006F0F9
:104DE0000803079310F01AF806F00209024600289B
:104DF00049D086492046FFF7BFFF8046B9F1000F32
:104E000008D016F0440F40D181492A462046FFF7CA
:104E1000B3FF804406F0010353B17E4B7E4953F843
:104E20002B207E4B2046002A08BF1A46FFF7A4FF1E
:104E300006F00803002B54D0794B7A4953F82B2005
:104E40002046FFF799FF0546069B2BB176491A4687
:104E50002046FFF791FF0544BAF1000F05D07349D2
:104E600052462046FFF788FF05444544002F49D1AC
:104E7000049B002B4FD1F30700F1C180314620463F
:104E8000FFF78CFFB5E08046B8E7694B186800284B
:104E9000BFD0684B4FF47A791B68B5FBF3F54FF43C
:104EA0006161B5FBF0F300FB135509FB05F54FF00D
:104EB0003C0CB3FBF1F201FB1231B5FBF0FEB1FB90
:104EC000FCF300FB1E550CFB131109FB05F50091CB
:104ED000B5FBF0F55849CDE901E52046FFF74CFF59
:104EE00097E706F00805AFE7BAF1010F06D1002FEA
:104EF00065D1049B002B7CD000250CE0002FF8D05E
:104F00004E485DE04E484F493B4622460FF058FB65
:104F1000049B002B69D0DFF83081DFF83091049FCB
:104F20003146102F204628BF1027FFF737FF4FF0DC
:104F3000000A554546DC059B49461A782046FFF78E
:104F40001BFF4FF0010A1AF0070F03D1414620461C
:104F5000FFF712FF57453CD9059B494613F80A2035
:104F60002046FFF709FF0AF1010ABAF1100FEAD152
:104F7000374920464FF0000AFFF7FEFE5246059BD8
:104F80009A5C344B995C11F0970F08BF2E2232497E
:104F90002046FFF7F1FE0AF1010ABAF1100F1DD009
:104FA0001AF0070F03D141462046FFF7E5FE5745AB
:104FB0005246E4D841462046FFF7DEFEEBE72048A4
:104FC0005D46A0E741462046FFF7D6FE0AF1010AFA
:104FD000AFE722492046FFF7CFFEC4E7059B3B44DD
:104FE0000593049BDB1B049399D1BBF1000F7FF465
:104FF00042AF204609B0BDE8F04F0FF054BF074A5A
:1050000005492046FFF7B8FE38E700BF1E9C01089F
:10501000229C01087C8701081DA90108199C010830
:1050200090870108479C01084D9C0108519C01088C
:105030000C270020082700202B9C0108F74E0108B0
:10504000C14E0108994E01085E9C0108569C01085A
:10505000609C0108CD950108EB9A01085C9C010851
:105060002DE9F0410F884B688E6886B005460C46E6
:105070009046C7F382175BB1144A9B1A43F38F0122
:10508000002920DB2078C0F3C200FFF7B5FC0346FF
:105090002146608851F8102B0197C2F34A22002A5A
:1050A00001EB0204C0F30B1008BF00210022CDE980
:1050B0000408CDE90214009231462846FFF77CFE31
:1050C00006B0BDE8F0810023E2E700BFB80B002086
:1050D00073B542F20F738B4228BF0B4605680F4A27
:1050E0000446052168460FF0E3FA63680C495B68E3
:1050F00006460B2228460FF0C2FE63683246694618
:1051000028465B680FF0BBFE636806495B681B229C
:1051100028460FF0B4FE02B070BD00BF37BC0108D6
:105120007E9C0108629C0108074A002101239042ED
:1051300006D8064A01B901231360054B1860704771
:1051400040085B000121F2E740420F0008270020E1
:105150000C27002000230428CB604B6098BF044B31
:10516000044A98BF53F820308A600B60704700BF34
:10517000EC880108788501080023084A0B60CB60A1
:105180004B608A60064B074AD21AB0EB121F3EBF33
:1051900003EB00139B680B60704700BF7088010829
:1051A000E0840108F08401080023064A10B50C468B
:1051B000CB604B608A6001461846FFF71DFC2060FB
:1051C00010BD00BF788501082DE9F3410E4C0F4E4C
:1051D0000F4FDFF840800546B44203D3002002B0F1
:1051E000BDE8F081636859791B7900290CBF3A4604
:1051F0004246CDE900230821A368074A284610F05B
:10520000C4F91034E8E700BFE0840108F084010825
:1052100015A101084BA20108AA9C01082DE9F74F2E
:105220000D4604460020FFF7DDFB6B685B790746FF
:1052300023B91E4A0321204610F0A7F91C4B1D4A32
:10524000DFF874A00821204610F09FF91B4A0821BE
:10525000204610F09AF94FF000080FFA88F6BE4287
:1052600008F1010803D3002003B0BDE8F08F3246F7
:10527000012300212846FFF78FFC00233246194600
:1052800081462846FFF788FC314683460020FFF719
:10529000B3FB5AF82B2001925AF8292000920346BA
:1052A000074A0821204610F070F9D6E7CB9C010888
:1052B000DD9C0108E99C010800890108079D01089F
:1052C000449D01082DE9F84F52F8048C134D064611
:1052D00040469B468A461746FAF772FF104B8146B6
:1052E0009D4208D30F4A43460121304610F04DF944
:1052F0006FF007040CE0A9684A4640460AF068FCD3
:10530000074B044638B93B46524629463046D847F3
:105310002046BDE8F88F1035E2E700BFE0840108C1
:10532000F0840108589D010808B5024BFFF7CAFF39
:10533000002008BD1D520008014BFFF7C3BF00BF8E
:10534000134F0108014BFFF7BDBF00BF1B4F010802
:10535000014BFFF7B7BF00BFC9540008014BFFF76F
:10536000B1BF00BF254F01081FB5044602A901A81F
:10537000FFF728FB002808DA2046164A012110F022
:1053800004F96FF0070004B010BD134A082120464D
:1053900010F0FBF8019B114A0821204610F0F5F8A7
:1053A000029B0F4A0821204610F0EFF803A8FFF7F0
:1053B00013FB002806DA0B4A0821204610F0E5F816
:1053C0000020E0E7039B084A0821204610F0DDF8A2
:1053D000F6E700BF6D9D01089E9D0108C69D01086E
:1053E000DB9D0108F89D0108309E01082DE9F04F72
:1053F000074685B0894698461546B2BB1046FFF76A
:10540000F1FA0646D9F804305B7923B92A4A032118
:10541000384610F0BAF8DFF8A4B00024B44221DA1C
:105420003DB358F8243002930020FFF7DBFA002345
:1054300082469A450CD0194600200393FFF7DCFA08
:10544000029940220AF0C4FB039B80B9002B2CDA9E
:1054500058F824301A4A01213846013410F095F8E2
:10546000A642DEDC05B0BDE8F08F1646CAE7013380
:10547000DFE7A24600210E9B22B24846FFF704FB5D
:105480000E9B834204460DD095B951462846FFF73E
:10549000B3FA03465BF8242000920321094A3846F8
:1054A00010F073F80AF10104B8E7A2461C46E1E7E0
:1054B00058F82A30EEE700BF4A9E0108008901082B
:1054C000759E01085F9E01082DE9F74FDFF850B087
:1054D000D3F804A00546884691461E4600275BF88F
:1054E000041B042250460AF073FB044658B10137EE
:1054F000052FF4D10B4A53460121284610F045F8F8
:105500006FF0070408E0009706F10803A9F1020212
:1055100041462846FFF76AFF204603B0BDE8F08FFA
:10552000008901088F9E0108014B00201960704717
:1055300024270020024B034801221A700FF0B3BC4D
:1055400065350020308901080148FFF7C1BD00BF63
:105550003089010810B5064B18680C46FFF756F85D
:1055600021460346BDE8104002480F22184700BFFD
:105570002427002030890108F8B5074F0D4604465E
:105580004618B44201D12846F8BD14F8011BBB6887
:1055900001485B689847F4E7A081010870B5074BA4
:1055A0001C6805460E460CB9204670BD31462046A3
:1055B000A8470028F9D16469F5E700BF2827002033
:1055C00001460148FFF7EABF155600087FB50446BB
:1055D00008462179042904EB030611D0082911D0CB
:1055E000022912D1E45A0025CDE90036CDE9024561
:1055F00013460821064A0FF0C8FF002004B070BD12
:10560000E458F0E7E4587568EEE700242546EBE738
:105610005DA0010837B50D4600900368064A0446B0
:10562000082128460FF0B1FF04492A46204603B05E
:10563000BDE830400FF081BC7FA00108CD550008C7
:10564000F0B40C4B0C4E5F6A0C4BB34203D36FF0BB
:105650008500F0BC70475D68BD4209D31C693CB150
:1056600095F802C00579AC4502D12346F0BC184735
:105670002433EAE72C270020380D0020140D0020E9
:105680002DE9F047134CDFF85080DFF850900546C5
:105690000E461746444503D36FF08500BDE8F087FA
:1056A0006268D9F824309A4212D3A36983B1907802
:1056B0002979884205D13A4631462846BDE8F04767
:1056C00018475279012A03D13A463146284698476D
:1056D0002434DFE7140D0020380D00202C27002093
:1056E0002DE9F0410B4CDFF8308005460E46174699
:1056F000444502D36FF0850009E063690BB9243497
:10570000F6E73A463146284698470028F7D1BDE8E3
:10571000F08100BF140D0020380D0020024B002244
:105720001A605A60704700BFE727002070B50B4B26
:105730000B4CA34201D3002070BD196A1E7F0022CA
:105740000439D5B2AE4201D82433F2E7013211F860
:1057500032508542F5D10120EEE700BF140D002044
:10576000380D002008B509480378C3F341130A3304
:1057700050F823303BB100F1080200F110019847C6
:10578000C043C00F08BD1846FCE700BF2C2700200F
:105790007FB5094803685B0708D0084B059304AA46
:1057A00002234FF4825104930FF028FC4FF0FF3096
:1057B00007B05DF804FB00BFF40B0020BDA001089A
:1057C00098B503460A480268520700AF0DD06C46F0
:1057D00088B06A460749C2E90513032342F8103F1F
:1057E0004FF4C2510FF00AFCA5460020BD4698BDFB
:1057F000F40B0020E2A00108F8B500AF054605F063
:10580000AFF910F1780F04461ED11B48036813F05E
:10581000060F0DD06C4688B06A46184BC2E90535B4
:10582000032342F8103F4FF4C4510FF0E7FBA546A5
:1058300028460FF0E6FB124AD2F8C43023EA0003F0
:10584000C2F8C430002413E00028F1D00A480368ED
:105850005B070DD06E4688B06A460A4BC2E9053533
:10586000032342F8103F4FF4C2510FF0C7FBB54677
:105870002046BD46F8BD00BFF40B0020FDA0010886
:105880002C2700201EA1010804282DE9F74FDFF87E
:105890009C9004460F4615D001282FD1DFF8908048
:1058A00098F8B93053B300F0CBFF224D4D4522D2CA
:1058B0002A6A4FF0000A2B7F5FFA8AF6B34204D8B7
:1058C0002435F3E7FFF72AFFE8E702EBC60601926B
:1058D000307905F045F9834630790FF092FBD8F81E
:1058E000C430019A23EA0003BBF1000FC8F8C430AA
:1058F0000AF1010ADFDA002388F8B9300D4D4D4571
:1059000008D30B4B1B6A6BB13946204603B0BDE888
:10591000F04F1847EB681BB13A4621462846984796
:105920002435ECE703B0BDE8F08F00BF380D002050
:105930002C270020140D0020F0B583B0C4B200AFB6
:1059400063060E46FC7107D02046FFF7EFFE10B34A
:105950001F4B93F8BA00F0B11E481D4D036803F0C9
:105960000703DEB1022B0DD96E4688B06A461A4B8A
:10597000C2E90534032342F8103F4FF4C6510FF03B
:105980003DFBB546F87905F04FF8EB6913B1F91D09
:105990000820984701200C37BD46F0BD022B0DD9D9
:1059A0006E4688B06A460D4BC2E90534032342F8BF
:1059B000103F4FF4C6510FF021FBB546F87905F0C2
:1059C00063F8EB69002BE5D0F91D0920E1E700BF82
:1059D0002C270020F40B002040A1010853A101084E
:1059E000F0B583B000AF04468078387023796279CF
:1059F0003E4D43EA02237B80E37803F003033B71CF
:105A00000FF0FFFAD5F8C430184206460CD0A4783F
:105A1000204600F0F7FE2046FFF7EEFE11F01EFFD5
:105A200010B9962012F0F0F8384604F0CDFF10F1CE
:105A3000780F36D12E48036813F0060F0ED06C464F
:105A400088B03B786A462B49C2E90513032342F824
:105A5000103F4FF4C4510FF0D1FAA546387805F045
:105A600043F810F1780F35D12148036813F0060F81
:105A70000ED06C4688B03B786A461F49C2E90513D0
:105A8000032342F8103F4FF4C4510FF0B7FAA54674
:105A9000D5F8C4300120334385F8B900C5F8C430C7
:105AA00015E00028DAD0124803685A070ED06C4679
:105AB00088B03B786A461149C2E90513032342F8CE
:105AC000103F4FF4C2510FF099FAA54600200C3751
